{
  "contractName": "Main",
  "abi": [
    {
      "inputs": [],
      "payable": false,
      "stateMutability": "nonpayable",
      "type": "constructor"
    },
    {
      "constant": true,
      "inputs": [
        {
          "internalType": "address",
          "name": "",
          "type": "address"
        }
      ],
      "name": "AaveDeposit",
      "outputs": [
        {
          "internalType": "bool",
          "name": "",
          "type": "bool"
        }
      ],
      "payable": false,
      "stateMutability": "view",
      "type": "function"
    },
    {
      "constant": true,
      "inputs": [
        {
          "internalType": "address",
          "name": "",
          "type": "address"
        }
      ],
      "name": "CompoundDeposit",
      "outputs": [
        {
          "internalType": "bool",
          "name": "",
          "type": "bool"
        }
      ],
      "payable": false,
      "stateMutability": "view",
      "type": "function"
    },
    {
      "constant": true,
      "inputs": [],
      "name": "lendingPool",
      "outputs": [
        {
          "internalType": "contract ILendingPool",
          "name": "",
          "type": "address"
        }
      ],
      "payable": false,
      "stateMutability": "view",
      "type": "function"
    },
    {
      "constant": true,
      "inputs": [],
      "name": "provider",
      "outputs": [
        {
          "internalType": "contract ILendingPoolAddressesProvider",
          "name": "",
          "type": "address"
        }
      ],
      "payable": false,
      "stateMutability": "view",
      "type": "function"
    },
    {
      "constant": false,
      "inputs": [
        {
          "internalType": "uint256",
          "name": "_amountDai",
          "type": "uint256"
        }
      ],
      "name": "DepositDai",
      "outputs": [],
      "payable": true,
      "stateMutability": "payable",
      "type": "function"
    },
    {
      "constant": false,
      "inputs": [
        {
          "internalType": "uint256",
          "name": "_reBalanceAmount",
          "type": "uint256"
        }
      ],
      "name": "reBalance",
      "outputs": [],
      "payable": true,
      "stateMutability": "payable",
      "type": "function"
    },
    {
      "constant": false,
      "inputs": [
        {
          "internalType": "uint256",
          "name": "_withdrawDai",
          "type": "uint256"
        }
      ],
      "name": "WithdrawDai",
      "outputs": [
        {
          "internalType": "bool",
          "name": "",
          "type": "bool"
        }
      ],
      "payable": true,
      "stateMutability": "payable",
      "type": "function"
    }
  ],
  "bytecode": "0x6080604052736b175474e89094c44da98b954eedeac495271d0f600660006101000a81548173ffffffffffffffffffffffffffffffffffffffff021916908373ffffffffffffffffffffffffffffffffffffffff160217905550735d3a536e4d6dbd6114cc1ead35777bab948e3643600760006101000a81548173ffffffffffffffffffffffffffffffffffffffff021916908373ffffffffffffffffffffffffffffffffffffffff160217905550600f60085560646009556000600a60006101000a81548161ffff021916908361ffff1602179055503480156100e257600080fd5b5073b53c1a33016b2dc2ff3653530bff1848a515c8c5600260006101000a81548173ffffffffffffffffffffffffffffffffffffffff021916908373ffffffffffffffffffffffffffffffffffffffff160217905550600260009054906101000a900473ffffffffffffffffffffffffffffffffffffffff1673ffffffffffffffffffffffffffffffffffffffff16630261bf8b6040518163ffffffff1660e01b815260040160206040518083038186803b1580156101a057600080fd5b505afa1580156101b4573d6000803e3d6000fd5b505050506040513d60208110156101ca57600080fd5b8101908080519060200190929190505050600460006101000a81548173ffffffffffffffffffffffffffffffffffffffff021916908373ffffffffffffffffffffffffffffffffffffffff160217905550600460009054906101000a900473ffffffffffffffffffffffffffffffffffffffff16600360006101000a81548173ffffffffffffffffffffffffffffffffffffffff021916908373ffffffffffffffffffffffffffffffffffffffff160217905550736b175474e89094c44da98b954eedeac495271d0f600560006101000a81548173ffffffffffffffffffffffffffffffffffffffff021916908373ffffffffffffffffffffffffffffffffffffffff1602179055506111c5806102e26000396000f3fe6080604052600436106100705760003560e01c806389fef9d91161004e57806389fef9d91461012857806391fd02bb14610191578063a59a9973146101fa578063db5466ee1461025157610070565b8063085d4883146100755780636ea30ce9146100cc5780637f929377146100fa575b600080fd5b34801561008157600080fd5b5061008a610297565b604051808273ffffffffffffffffffffffffffffffffffffffff1673ffffffffffffffffffffffffffffffffffffffff16815260200191505060405180910390f35b6100f8600480360360208110156100e257600080fd5b81019080803590602001909291905050506102bd565b005b6101266004803603602081101561011057600080fd5b8101908080359060200190929190505050610aab565b005b34801561013457600080fd5b506101776004803603602081101561014b57600080fd5b81019080803573ffffffffffffffffffffffffffffffffffffffff169060200190929190505050610e73565b604051808215151515815260200191505060405180910390f35b34801561019d57600080fd5b506101e0600480360360208110156101b457600080fd5b81019080803573ffffffffffffffffffffffffffffffffffffffff169060200190929190505050610e93565b604051808215151515815260200191505060405180910390f35b34801561020657600080fd5b5061020f610eb3565b604051808273ffffffffffffffffffffffffffffffffffffffff1673ffffffffffffffffffffffffffffffffffffffff16815260200191505060405180910390f35b61027d6004803603602081101561026757600080fd5b8101908080359060200190929190505050610ed9565b604051808215151515815260200191505060405180910390f35b600260009054906101000a900473ffffffffffffffffffffffffffffffffffffffff1681565b600954600854111561062b5760011515600160003373ffffffffffffffffffffffffffffffffffffffff1673ffffffffffffffffffffffffffffffffffffffff16815260200190815260200160002060009054906101000a900460ff1615151461038f576040517f08c379a00000000000000000000000000000000000000000000000000000000081526004018080602001828103825260188152602001807f4e6f204141564520726562616c616e6365206e6565646564000000000000000081525060200191505060405180910390fd5b600760009054906101000a900473ffffffffffffffffffffffffffffffffffffffff1673ffffffffffffffffffffffffffffffffffffffff1663db006a75826040518263ffffffff1660e01b815260040180828152602001915050602060405180830381600087803b15801561040457600080fd5b505af1158015610418573d6000803e3d6000fd5b505050506040513d602081101561042e57600080fd5b810190808051906020019092919050505050600360009054906101000a900473ffffffffffffffffffffffffffffffffffffffff1673ffffffffffffffffffffffffffffffffffffffff1663e8eda9df600560009054906101000a900473ffffffffffffffffffffffffffffffffffffffff168333600a60009054906101000a900461ffff166040518563ffffffff1660e01b8152600401808573ffffffffffffffffffffffffffffffffffffffff1673ffffffffffffffffffffffffffffffffffffffff1681526020018481526020018373ffffffffffffffffffffffffffffffffffffffff1673ffffffffffffffffffffffffffffffffffffffff1681526020018261ffff1661ffff168152602001945050505050600060405180830381600087803b15801561055f57600080fd5b505af1158015610573573d6000803e3d6000fd5b505050506000600160003373ffffffffffffffffffffffffffffffffffffffff1673ffffffffffffffffffffffffffffffffffffffff16815260200190815260200160002060006101000a81548160ff02191690831515021790555060016000803373ffffffffffffffffffffffffffffffffffffffff1673ffffffffffffffffffffffffffffffffffffffff16815260200190815260200160002060006101000a81548160ff021916908315150217905550610aa8565b6008546009541115610aa257600115156000803373ffffffffffffffffffffffffffffffffffffffff1673ffffffffffffffffffffffffffffffffffffffff16815260200190815260200160002060009054906101000a900460ff161515146106fc576040517f08c379a000000000000000000000000000000000000000000000000000000000815260040180806020018281038252601c8152602001807f4e6f20436f6d706f756e6420726562616c616e6365206e65656465640000000081525060200191505060405180910390fd5b600360009054906101000a900473ffffffffffffffffffffffffffffffffffffffff1673ffffffffffffffffffffffffffffffffffffffff166369328dec600560009054906101000a900473ffffffffffffffffffffffffffffffffffffffff1683336040518463ffffffff1660e01b8152600401808473ffffffffffffffffffffffffffffffffffffffff1673ffffffffffffffffffffffffffffffffffffffff1681526020018381526020018273ffffffffffffffffffffffffffffffffffffffff1673ffffffffffffffffffffffffffffffffffffffff1681526020019350505050602060405180830381600087803b1580156107fb57600080fd5b505af115801561080f573d6000803e3d6000fd5b505050506040513d602081101561082557600080fd5b810190808051906020019092919050505050600660009054906101000a900473ffffffffffffffffffffffffffffffffffffffff1673ffffffffffffffffffffffffffffffffffffffff1663095ea7b3600760009054906101000a900473ffffffffffffffffffffffffffffffffffffffff16836040518363ffffffff1660e01b8152600401808373ffffffffffffffffffffffffffffffffffffffff1673ffffffffffffffffffffffffffffffffffffffff16815260200182815260200192505050602060405180830381600087803b15801561090257600080fd5b505af1158015610916573d6000803e3d6000fd5b505050506040513d602081101561092c57600080fd5b810190808051906020019092919050505050600760009054906101000a900473ffffffffffffffffffffffffffffffffffffffff1673ffffffffffffffffffffffffffffffffffffffff1663a0712d68826040518263ffffffff1660e01b815260040180828152602001915050602060405180830381600087803b1580156109b357600080fd5b505af11580156109c7573d6000803e3d6000fd5b505050506040513d60208110156109dd57600080fd5b81019080805190602001909291905050505060008060003373ffffffffffffffffffffffffffffffffffffffff1673ffffffffffffffffffffffffffffffffffffffff16815260200190815260200160002060006101000a81548160ff02191690831515021790555060018060003373ffffffffffffffffffffffffffffffffffffffff1673ffffffffffffffffffffffffffffffffffffffff16815260200190815260200160002060006101000a81548160ff021916908315150217905550610aa7565b600080fd5b5b50565b6009546008541115610c4a57600360009054906101000a900473ffffffffffffffffffffffffffffffffffffffff1673ffffffffffffffffffffffffffffffffffffffff1663e8eda9df600560009054906101000a900473ffffffffffffffffffffffffffffffffffffffff168333600a60009054906101000a900461ffff166040518563ffffffff1660e01b8152600401808573ffffffffffffffffffffffffffffffffffffffff1673ffffffffffffffffffffffffffffffffffffffff1681526020018481526020018373ffffffffffffffffffffffffffffffffffffffff1673ffffffffffffffffffffffffffffffffffffffff1681526020018261ffff1661ffff168152602001945050505050600060405180830381600087803b158015610bd657600080fd5b505af1158015610bea573d6000803e3d6000fd5b5050505060016000803373ffffffffffffffffffffffffffffffffffffffff1673ffffffffffffffffffffffffffffffffffffffff16815260200190815260200160002060006101000a81548160ff021916908315150217905550610e70565b6008546009541115610e6a57600660009054906101000a900473ffffffffffffffffffffffffffffffffffffffff1673ffffffffffffffffffffffffffffffffffffffff1663095ea7b3600760009054906101000a900473ffffffffffffffffffffffffffffffffffffffff16836040518363ffffffff1660e01b8152600401808373ffffffffffffffffffffffffffffffffffffffff1673ffffffffffffffffffffffffffffffffffffffff16815260200182815260200192505050602060405180830381600087803b158015610d2157600080fd5b505af1158015610d35573d6000803e3d6000fd5b505050506040513d6020811015610d4b57600080fd5b810190808051906020019092919050505050600760009054906101000a900473ffffffffffffffffffffffffffffffffffffffff1673ffffffffffffffffffffffffffffffffffffffff1663a0712d68826040518263ffffffff1660e01b815260040180828152602001915050602060405180830381600087803b158015610dd257600080fd5b505af1158015610de6573d6000803e3d6000fd5b505050506040513d6020811015610dfc57600080fd5b81019080805190602001909291905050505060018060003373ffffffffffffffffffffffffffffffffffffffff1673ffffffffffffffffffffffffffffffffffffffff16815260200190815260200160002060006101000a81548160ff021916908315150217905550610e6f565b600080fd5b5b50565b60006020528060005260406000206000915054906101000a900460ff1681565b60016020528060005260406000206000915054906101000a900460ff1681565b600360009054906101000a900473ffffffffffffffffffffffffffffffffffffffff1681565b6000600115156000803373ffffffffffffffffffffffffffffffffffffffff1673ffffffffffffffffffffffffffffffffffffffff16815260200190815260200160002060009054906101000a900460ff161515141561107757600360009054906101000a900473ffffffffffffffffffffffffffffffffffffffff1673ffffffffffffffffffffffffffffffffffffffff166369328dec600560009054906101000a900473ffffffffffffffffffffffffffffffffffffffff1684336040518463ffffffff1660e01b8152600401808473ffffffffffffffffffffffffffffffffffffffff1673ffffffffffffffffffffffffffffffffffffffff1681526020018381526020018273ffffffffffffffffffffffffffffffffffffffff1673ffffffffffffffffffffffffffffffffffffffff1681526020019350505050602060405180830381600087803b15801561103257600080fd5b505af1158015611046573d6000803e3d6000fd5b505050506040513d602081101561105c57600080fd5b8101908080519060200190929190505050506001905061118b565b60011515600160003373ffffffffffffffffffffffffffffffffffffffff1673ffffffffffffffffffffffffffffffffffffffff16815260200190815260200160002060009054906101000a900460ff161515141561118a57600760009054906101000a900473ffffffffffffffffffffffffffffffffffffffff1673ffffffffffffffffffffffffffffffffffffffff1663db006a75836040518263ffffffff1660e01b815260040180828152602001915050602060405180830381600087803b15801561114557600080fd5b505af1158015611159573d6000803e3d6000fd5b505050506040513d602081101561116f57600080fd5b8101908080519060200190929190505050506001905061118b565b5b91905056fea265627a7a723158202de6fd1c58a71344768c3d7bb09f6846940bd7adc88e326c33bd88293250cc8f64736f6c63430005100032",
  "source": "// SPDX-License-Identifier: MIT;\npragma solidity ^0.5.16;\n\nimport '@aave/protocol-v2/contracts/interfaces/ILendingPoolAddressesProvider.sol';\nimport '@aave/protocol-v2/contracts/interfaces/ILendingPool.sol';\nimport 'compound-protocol/contracts/CErc20.sol';\nimport 'compound-protocol/contracts/CToken.sol';\nimport 'compound-protocol/tests/Contracts/ERC20.sol';\n\n\ncontract Main {\n    \n    //stores if address has deposited with Aave or Compound\n    mapping (address => bool) public AaveDeposit;\n    mapping (address => bool) public CompoundDeposit;\n    \n    \n    //variables\n    ILendingPoolAddressesProvider public provider;\n    ILendingPool public lendingPool;\n    address addressLendingPool;\n    address DaiTokenAddress;\n\n        \n    constructor() public {\n        \n        provider = ILendingPoolAddressesProvider(address(0xB53C1a33016B2DC2fF3653530bfF1848a515c8c5));\n        addressLendingPool = provider.getLendingPool();\n        lendingPool = ILendingPool(address(addressLendingPool));\n        DaiTokenAddress = address(0x6B175474E89094C44Da98b954EedeAC495271d0F);\n    }\n    \n\n        ERC20 underlying = ERC20(0x6B175474E89094C44Da98b954EedeAC495271d0F);\n        CErc20 cToken = CErc20(0x5d3a536E4D6DbD6114cc1Ead35777bAB948E3643);\n        \n        //uint256 CompoundAPY = cToken.supplyRatePerBlock();\n        uint256 AaveAPY = 15;\n        uint256 CompoundAPY = 100;\n        \n        //input variables\n        uint16 referralCode= 0;\n        \n        \n        function DepositDai(uint256 _amountDai) public payable {\n\n            if (AaveAPY > CompoundAPY) {\n                \n                lendingPool.deposit(DaiTokenAddress, _amountDai, msg.sender, referralCode);\n                AaveDeposit[msg.sender] = true;\n                \n                \n            }\n            \n            else if (CompoundAPY > AaveAPY) {\n                \n                underlying.approve(address(cToken), _amountDai);\n                cToken.mint(_amountDai);\n                CompoundDeposit[msg.sender] = true;\n            } \n            \n            else {\n                \n                revert();\n            }\n            \n        \n            \n        }\n        \n        function reBalance(uint256 _reBalanceAmount) public payable {\n            \n            //check APY rates\n            if (AaveAPY > CompoundAPY) {\n                \n                //check to see if a deposit is made to compound under this address, if true then swap to aave\n                require(CompoundDeposit[msg.sender] == true, \"No AAVE rebalance needed\");\n                cToken.redeem(_reBalanceAmount);\n                lendingPool.deposit(DaiTokenAddress, _reBalanceAmount, msg.sender, referralCode);\n                CompoundDeposit[msg.sender] = false;\n                AaveDeposit[msg.sender] = true;\n                \n                \n            }\n            \n            //check APY rates\n            else if (CompoundAPY > AaveAPY) {\n                \n                //check to see if a deposit is made to aave under this address, if true then swap to compound\n                require(AaveDeposit[msg.sender] == true, \"No Compound rebalance needed\");\n                lendingPool.withdraw(DaiTokenAddress, _reBalanceAmount, msg.sender);\n                underlying.approve(address(cToken), _reBalanceAmount);\n                cToken.mint(_reBalanceAmount);\n                AaveDeposit[msg.sender] = false;\n                CompoundDeposit[msg.sender] = true;\n   \n        } \n        \n            else {\n                \n                revert();\n            }\n     \n    \n}\n\n        function WithdrawDai(uint256 _withdrawDai) public payable returns(bool) {\n            \n            if (AaveDeposit[msg.sender] == true) {\n                \n                lendingPool.withdraw(DaiTokenAddress, _withdrawDai, msg.sender);\n                return true;\n            }\n            \n            else if (CompoundDeposit[msg.sender] == true) {\n                \n                cToken.redeem(_withdrawDai);\n                return true;\n   \n        } \n            \n            \n        }\n\n\n\n\n\n\n\n}\n\n",
  "sourcePath": "/home/manraj/yield_agg/src/contracts/Main.sol",
  "compiler": {
    "name": "solc",
    "version": "0.5.16+commit.9c3226ce.Emscripten.clang"
  },
  "schemaVersion": "3.4.3",
  "updatedAt": "2021-09-24T05:49:01.234Z",
  "networkType": "ethereum",
  "devdoc": {
    "methods": {}
  },
  "userdoc": {
    "methods": {}
  }
}